{
  "address": "0xe8D2A1E88c91DCd5433208d4152Cc4F399a7e91d",
  "abi": [
    {
      "inputs": [
        {
          "internalType": "address",
          "name": "token_",
          "type": "address"
        },
        {
          "internalType": "bytes32",
          "name": "merkleRoot_",
          "type": "bytes32"
        }
      ],
      "stateMutability": "nonpayable",
      "type": "constructor"
    },
    {
      "anonymous": false,
      "inputs": [
        {
          "indexed": false,
          "internalType": "address",
          "name": "account",
          "type": "address"
        },
        {
          "indexed": false,
          "internalType": "uint256",
          "name": "amount",
          "type": "uint256"
        }
      ],
      "name": "Claimed",
      "type": "event"
    },
    {
      "inputs": [
        {
          "internalType": "address",
          "name": "account",
          "type": "address"
        },
        {
          "internalType": "uint256",
          "name": "amount",
          "type": "uint256"
        },
        {
          "internalType": "bytes32[]",
          "name": "merkleProof",
          "type": "bytes32[]"
        }
      ],
      "name": "claim",
      "outputs": [],
      "stateMutability": "nonpayable",
      "type": "function"
    },
    {
      "inputs": [
        {
          "internalType": "address",
          "name": "user",
          "type": "address"
        }
      ],
      "name": "isClaimed",
      "outputs": [
        {
          "internalType": "bool",
          "name": "",
          "type": "bool"
        }
      ],
      "stateMutability": "view",
      "type": "function"
    },
    {
      "inputs": [],
      "name": "merkleRoot",
      "outputs": [
        {
          "internalType": "bytes32",
          "name": "",
          "type": "bytes32"
        }
      ],
      "stateMutability": "view",
      "type": "function"
    },
    {
      "inputs": [],
      "name": "token",
      "outputs": [
        {
          "internalType": "address",
          "name": "",
          "type": "address"
        }
      ],
      "stateMutability": "view",
      "type": "function"
    }
  ],
  "transactionHash": "0xbf3d535dbdc62d0939350686d8b77b21626462c2d2fb75c238e3b5a85f42cbba",
  "args": [
    "0x720472c8ce72c2A2D711333e064ABD3E6BbEAdd3",
    "0x51f67ac77a03a001ed92000c91ff17bcb0675659c2c94ab7e84f5f69d2cd739b"
  ],
  "solcInputHash": "9036bfedf1c272a71259e5da72d379fb",
  "bytecode": "0x60c060405234801561001057600080fd5b506040516106f73803806106f783398101604081905261002f91610045565b6001600160a01b0390911660805260a05261007f565b6000806040838503121561005857600080fd5b82516001600160a01b038116811461006f57600080fd5b6020939093015192949293505050565b60805160a0516106476100b0600039600081816056015261021001526000818160e101526102b701526106476000f3fe608060405234801561001057600080fd5b506004361061004c5760003560e01c80632eb4a7ab146100515780633d13f8741461008b5780638cc08025146100a0578063fc0c546a146100dc575b600080fd5b6100787f000000000000000000000000000000000000000000000000000000000000000081565b6040519081526020015b60405180910390f35b61009e6100993660046104dd565b61011b565b005b6100cc6100ae366004610567565b6001600160a01b031660009081526020819052604090205460ff1690565b6040519015158152602001610082565b6101037f000000000000000000000000000000000000000000000000000000000000000081565b6040516001600160a01b039091168152602001610082565b6001600160a01b03841660009081526020819052604090205460ff161561019a5760405162461bcd60e51b815260206004820152602860248201527f4d65726b6c654469737472696275746f723a2044726f7020616c72656164792060448201526731b630b4b6b2b21760c11b60648201526084015b60405180910390fd5b6040516bffffffffffffffffffffffff19606086901b1660208201526034810184905260009060540160405160208183030381529060405280519060200120905061023b8383808060200260200160405190810160405280939291908181526020018383602002808284376000920191909152507f000000000000000000000000000000000000000000000000000000000000000092508591506103ff9050565b6102915760405162461bcd60e51b815260206004820152602160248201527f4d65726b6c654469737472696275746f723a20496e76616c69642070726f6f666044820152601760f91b6064820152608401610191565b6001600160a01b038086166000908152602081905260409020805460ff191660011790557f00000000000000000000000000000000000000000000000000000000000000001663a9059cbb866102ef87670de0b6b3a764000061059f565b6040516001600160e01b031960e085901b1681526001600160a01b03909216600483015260248201526044016020604051808303816000875af115801561033a573d6000803e3d6000fd5b505050506040513d601f19601f8201168201806040525081019061035e91906105be565b6103b65760405162461bcd60e51b815260206004820152602360248201527f4d65726b6c654469737472696275746f723a205472616e73666572206661696c60448201526232b21760e91b6064820152608401610191565b604080516001600160a01b0387168152602081018690527fd8138f8a3f377c5259ca548e70e4c2de94f129f5a11036a15b69513cba2b426a910160405180910390a15050505050565b60008261040c8584610415565b14949350505050565b600081815b84518110156104b9576000858281518110610437576104376105e0565b602002602001015190508083116104795760408051602081018590529081018290526060016040516020818303038152906040528051906020012092506104a6565b60408051602081018390529081018490526060016040516020818303038152906040528051906020012092505b50806104b1816105f6565b91505061041a565b509392505050565b80356001600160a01b03811681146104d857600080fd5b919050565b600080600080606085870312156104f357600080fd5b6104fc856104c1565b935060208501359250604085013567ffffffffffffffff8082111561052057600080fd5b818701915087601f83011261053457600080fd5b81358181111561054357600080fd5b8860208260051b850101111561055857600080fd5b95989497505060200194505050565b60006020828403121561057957600080fd5b610582826104c1565b9392505050565b634e487b7160e01b600052601160045260246000fd5b60008160001904831182151516156105b9576105b9610589565b500290565b6000602082840312156105d057600080fd5b8151801515811461058257600080fd5b634e487b7160e01b600052603260045260246000fd5b600060001982141561060a5761060a610589565b506001019056fea2646970667358221220335a54c899e2f2608ba743327dd6205f135f336ed6f9bd569daae5e1da95f20c64736f6c634300080b0033",
  "devdoc": {
    "kind": "dev",
    "methods": {},
    "version": 1
  },
  "userdoc": {
    "kind": "user",
    "methods": {},
    "version": 1
  },
  "storageLayout": {
    "storage": [
      {
        "astId": 770,
        "contract": "contracts/MerkleDistributor.sol:MerkleDistributor",
        "label": "claimed",
        "offset": 0,
        "slot": "0",
        "type": "t_mapping(t_address,t_bool)"
      }
    ],
    "types": {
      "t_address": {
        "encoding": "inplace",
        "label": "address",
        "numberOfBytes": "20"
      },
      "t_bool": {
        "encoding": "inplace",
        "label": "bool",
        "numberOfBytes": "1"
      },
      "t_mapping(t_address,t_bool)": {
        "encoding": "mapping",
        "key": "t_address",
        "label": "mapping(address => bool)",
        "numberOfBytes": "32",
        "value": "t_bool"
      }
    }
  }
}