{
  "address": "0x11ae08fC5124b244451884926baFe857316f7ccc",
  "abi": [
    {
      "inputs": [
        {
          "internalType": "address",
          "name": "token_",
          "type": "address"
        },
        {
          "internalType": "bytes32",
          "name": "merkleRoot_",
          "type": "bytes32"
        }
      ],
      "stateMutability": "nonpayable",
      "type": "constructor"
    },
    {
      "anonymous": false,
      "inputs": [
        {
          "indexed": false,
          "internalType": "address",
          "name": "account",
          "type": "address"
        },
        {
          "indexed": false,
          "internalType": "uint256",
          "name": "amount",
          "type": "uint256"
        }
      ],
      "name": "Claimed",
      "type": "event"
    },
    {
      "inputs": [
        {
          "internalType": "address",
          "name": "account",
          "type": "address"
        },
        {
          "internalType": "uint256",
          "name": "amount",
          "type": "uint256"
        },
        {
          "internalType": "bytes32[]",
          "name": "merkleProof",
          "type": "bytes32[]"
        }
      ],
      "name": "claim",
      "outputs": [],
      "stateMutability": "nonpayable",
      "type": "function"
    },
    {
      "inputs": [
        {
          "internalType": "address",
          "name": "user",
          "type": "address"
        }
      ],
      "name": "isClaimed",
      "outputs": [
        {
          "internalType": "bool",
          "name": "",
          "type": "bool"
        }
      ],
      "stateMutability": "view",
      "type": "function"
    },
    {
      "inputs": [],
      "name": "merkleRoot",
      "outputs": [
        {
          "internalType": "bytes32",
          "name": "",
          "type": "bytes32"
        }
      ],
      "stateMutability": "view",
      "type": "function"
    },
    {
      "inputs": [],
      "name": "sweep",
      "outputs": [],
      "stateMutability": "nonpayable",
      "type": "function"
    },
    {
      "inputs": [],
      "name": "token",
      "outputs": [
        {
          "internalType": "address",
          "name": "",
          "type": "address"
        }
      ],
      "stateMutability": "view",
      "type": "function"
    }
  ],
  "transactionHash": "0xb8b681972caa9e71874ed925c3b21eca9525c917901d0d2d13d5b0760d7112e7",
  "args": [
    "0xF8Fe4dbE106AC2a1e6C96C3Ca77B344A1b1A49e1",
    "0x4a824969dff1e5e5bd1ffd61c9e08f65dbbf987c072b3b5c4acc80a77085d4b2"
  ],
  "solcInputHash": "a721ca0949dcf57b208cdc73fef6a926",
  "bytecode": "0x60e060405234801561001057600080fd5b506040516109a03803806109a083398101604081905261002f91610049565b6001600160a01b0390911660805260a0524260c052610083565b6000806040838503121561005c57600080fd5b82516001600160a01b038116811461007357600080fd5b6020939093015192949293505050565b60805160a05160c0516108db6100c560003960006101330152600081816061015261046c01526000818160f401528181610272015261051301526108db6000f3fe608060405234801561001057600080fd5b50600436106100575760003560e01c80632eb4a7ab1461005c57806335faa416146100965780633d13f874146100a05780638cc08025146100b3578063fc0c546a146100ef575b600080fd5b6100837f000000000000000000000000000000000000000000000000000000000000000081565b6040519081526020015b60405180910390f35b61009e61012e565b005b61009e6100ae3660046106fd565b61037c565b6100df6100c1366004610787565b6001600160a01b031660009081526020819052604090205460ff1690565b604051901515815260200161008d565b6101167f000000000000000000000000000000000000000000000000000000000000000081565b6040516001600160a01b03909116815260200161008d565b61015b7f000000000000000000000000000000000000000000000000000000000000000062ed4e006107bf565b42116101c75760405162461bcd60e51b815260206004820152603060248201527f4d65726b6c654469737472696275746f723a2041697264726f7020706572696f60448201526f32103430b9903737ba1032b73232b21760811b60648201526084015b60405180910390fd5b731489a38ea1b5b1547301a480f19fa17a0a3db2233314806101fc5750732f075618681d45458ae20e17ca3ccf1c797d6e1a33145b61025d5760405162461bcd60e51b815260206004820152602c60248201527f4d65726b6c654469737472696275746f723a204f6e6c7920746865206f776e6560448201526b391031b0b71039bbb2b2b81760a11b60648201526084016101be565b6040516370a0823160e01b81523060048201527f00000000000000000000000000000000000000000000000000000000000000006001600160a01b03169063a9059cbb90339083906370a0823190602401602060405180830381865afa1580156102cb573d6000803e3d6000fd5b505050506040513d601f19601f820116820180604052508101906102ef91906107d7565b6040516001600160e01b031960e085901b1681526001600160a01b03909216600483015260248201526044016020604051808303816000875af115801561033a573d6000803e3d6000fd5b505050506040513d601f19601f8201168201806040525081019061035e91906107f0565b61037a5760405162461bcd60e51b81526004016101be90610812565b565b6001600160a01b03841660009081526020819052604090205460ff16156103f65760405162461bcd60e51b815260206004820152602860248201527f4d65726b6c654469737472696275746f723a2044726f7020616c72656164792060448201526731b630b4b6b2b21760c11b60648201526084016101be565b6040516bffffffffffffffffffffffff19606086901b166020820152603481018490526000906054016040516020818303038152906040528051906020012090506104978383808060200260200160405190810160405280939291908181526020018383602002808284376000920191909152507f0000000000000000000000000000000000000000000000000000000000000000925085915061061f9050565b6104ed5760405162461bcd60e51b815260206004820152602160248201527f4d65726b6c654469737472696275746f723a20496e76616c69642070726f6f666044820152601760f91b60648201526084016101be565b6001600160a01b038086166000908152602081905260409020805460ff191660011790557f00000000000000000000000000000000000000000000000000000000000000001663a9059cbb8661054b87670de0b6b3a7640000610855565b6040516001600160e01b031960e085901b1681526001600160a01b03909216600483015260248201526044016020604051808303816000875af1158015610596573d6000803e3d6000fd5b505050506040513d601f19601f820116820180604052508101906105ba91906107f0565b6105d65760405162461bcd60e51b81526004016101be90610812565b604080516001600160a01b0387168152602081018690527fd8138f8a3f377c5259ca548e70e4c2de94f129f5a11036a15b69513cba2b426a910160405180910390a15050505050565b60008261062c8584610635565b14949350505050565b600081815b84518110156106d957600085828151811061065757610657610874565b602002602001015190508083116106995760408051602081018590529081018290526060016040516020818303038152906040528051906020012092506106c6565b60408051602081018390529081018490526060016040516020818303038152906040528051906020012092505b50806106d18161088a565b91505061063a565b509392505050565b80356001600160a01b03811681146106f857600080fd5b919050565b6000806000806060858703121561071357600080fd5b61071c856106e1565b935060208501359250604085013567ffffffffffffffff8082111561074057600080fd5b818701915087601f83011261075457600080fd5b81358181111561076357600080fd5b8860208260051b850101111561077857600080fd5b95989497505060200194505050565b60006020828403121561079957600080fd5b6107a2826106e1565b9392505050565b634e487b7160e01b600052601160045260246000fd5b600082198211156107d2576107d26107a9565b500190565b6000602082840312156107e957600080fd5b5051919050565b60006020828403121561080257600080fd5b815180151581146107a257600080fd5b60208082526023908201527f4d65726b6c654469737472696275746f723a205472616e73666572206661696c60408201526232b21760e91b606082015260800190565b600081600019048311821515161561086f5761086f6107a9565b500290565b634e487b7160e01b600052603260045260246000fd5b600060001982141561089e5761089e6107a9565b506001019056fea264697066735822122094546db1078bffe6bff24da1e663d046b13e0fc4bceae887fab08a50b48369c564736f6c634300080b0033",
  "devdoc": {
    "kind": "dev",
    "methods": {},
    "version": 1
  },
  "userdoc": {
    "kind": "user",
    "methods": {},
    "version": 1
  },
  "storageLayout": {
    "storage": [
      {
        "astId": 770,
        "contract": "contracts/MerkleDistributor.sol:MerkleDistributor",
        "label": "claimed",
        "offset": 0,
        "slot": "0",
        "type": "t_mapping(t_address,t_bool)"
      }
    ],
    "types": {
      "t_address": {
        "encoding": "inplace",
        "label": "address",
        "numberOfBytes": "20"
      },
      "t_bool": {
        "encoding": "inplace",
        "label": "bool",
        "numberOfBytes": "1"
      },
      "t_mapping(t_address,t_bool)": {
        "encoding": "mapping",
        "key": "t_address",
        "label": "mapping(address => bool)",
        "numberOfBytes": "32",
        "value": "t_bool"
      }
    }
  }
}