{
  "address": "0xab16A69A5a8c12C732e0DEFF4BE56A70bb64c926",
  "abi": [
    {
      "inputs": [
        {
          "internalType": "bytes32",
          "name": "merkleRoot_",
          "type": "bytes32"
        }
      ],
      "stateMutability": "nonpayable",
      "type": "constructor"
    },
    {
      "anonymous": false,
      "inputs": [
        {
          "indexed": true,
          "internalType": "address",
          "name": "owner",
          "type": "address"
        },
        {
          "indexed": true,
          "internalType": "address",
          "name": "approved",
          "type": "address"
        },
        {
          "indexed": true,
          "internalType": "uint256",
          "name": "tokenId",
          "type": "uint256"
        }
      ],
      "name": "Approval",
      "type": "event"
    },
    {
      "anonymous": false,
      "inputs": [
        {
          "indexed": true,
          "internalType": "address",
          "name": "owner",
          "type": "address"
        },
        {
          "indexed": true,
          "internalType": "address",
          "name": "operator",
          "type": "address"
        },
        {
          "indexed": false,
          "internalType": "bool",
          "name": "approved",
          "type": "bool"
        }
      ],
      "name": "ApprovalForAll",
      "type": "event"
    },
    {
      "anonymous": false,
      "inputs": [
        {
          "indexed": true,
          "internalType": "address",
          "name": "previousOwner",
          "type": "address"
        },
        {
          "indexed": true,
          "internalType": "address",
          "name": "newOwner",
          "type": "address"
        }
      ],
      "name": "OwnershipTransferred",
      "type": "event"
    },
    {
      "anonymous": false,
      "inputs": [
        {
          "indexed": true,
          "internalType": "address",
          "name": "from",
          "type": "address"
        },
        {
          "indexed": true,
          "internalType": "address",
          "name": "to",
          "type": "address"
        },
        {
          "indexed": true,
          "internalType": "uint256",
          "name": "tokenId",
          "type": "uint256"
        }
      ],
      "name": "Transfer",
      "type": "event"
    },
    {
      "inputs": [
        {
          "internalType": "address",
          "name": "to",
          "type": "address"
        },
        {
          "internalType": "uint256",
          "name": "tokenId",
          "type": "uint256"
        }
      ],
      "name": "approve",
      "outputs": [],
      "stateMutability": "nonpayable",
      "type": "function"
    },
    {
      "inputs": [
        {
          "internalType": "address",
          "name": "owner",
          "type": "address"
        }
      ],
      "name": "balanceOf",
      "outputs": [
        {
          "internalType": "uint256",
          "name": "",
          "type": "uint256"
        }
      ],
      "stateMutability": "view",
      "type": "function"
    },
    {
      "inputs": [],
      "name": "baseURI",
      "outputs": [
        {
          "internalType": "string",
          "name": "",
          "type": "string"
        }
      ],
      "stateMutability": "view",
      "type": "function"
    },
    {
      "inputs": [
        {
          "internalType": "uint256",
          "name": "tokenId",
          "type": "uint256"
        }
      ],
      "name": "getApproved",
      "outputs": [
        {
          "internalType": "address",
          "name": "",
          "type": "address"
        }
      ],
      "stateMutability": "view",
      "type": "function"
    },
    {
      "inputs": [
        {
          "internalType": "address",
          "name": "owner",
          "type": "address"
        },
        {
          "internalType": "address",
          "name": "operator",
          "type": "address"
        }
      ],
      "name": "isApprovedForAll",
      "outputs": [
        {
          "internalType": "bool",
          "name": "",
          "type": "bool"
        }
      ],
      "stateMutability": "view",
      "type": "function"
    },
    {
      "inputs": [
        {
          "internalType": "address",
          "name": "user",
          "type": "address"
        }
      ],
      "name": "isClaimed",
      "outputs": [
        {
          "internalType": "bool",
          "name": "",
          "type": "bool"
        }
      ],
      "stateMutability": "view",
      "type": "function"
    },
    {
      "inputs": [],
      "name": "merkleRoot",
      "outputs": [
        {
          "internalType": "bytes32",
          "name": "",
          "type": "bytes32"
        }
      ],
      "stateMutability": "view",
      "type": "function"
    },
    {
      "inputs": [
        {
          "internalType": "address",
          "name": "account",
          "type": "address"
        },
        {
          "internalType": "uint256",
          "name": "amount",
          "type": "uint256"
        },
        {
          "internalType": "bytes32[]",
          "name": "merkleProof",
          "type": "bytes32[]"
        }
      ],
      "name": "mint",
      "outputs": [],
      "stateMutability": "nonpayable",
      "type": "function"
    },
    {
      "inputs": [],
      "name": "name",
      "outputs": [
        {
          "internalType": "string",
          "name": "",
          "type": "string"
        }
      ],
      "stateMutability": "view",
      "type": "function"
    },
    {
      "inputs": [],
      "name": "nextOwnerToExplicitlySet",
      "outputs": [
        {
          "internalType": "uint256",
          "name": "",
          "type": "uint256"
        }
      ],
      "stateMutability": "view",
      "type": "function"
    },
    {
      "inputs": [],
      "name": "owner",
      "outputs": [
        {
          "internalType": "address",
          "name": "",
          "type": "address"
        }
      ],
      "stateMutability": "view",
      "type": "function"
    },
    {
      "inputs": [
        {
          "internalType": "uint256",
          "name": "tokenId",
          "type": "uint256"
        }
      ],
      "name": "ownerOf",
      "outputs": [
        {
          "internalType": "address",
          "name": "",
          "type": "address"
        }
      ],
      "stateMutability": "view",
      "type": "function"
    },
    {
      "inputs": [],
      "name": "renounceOwnership",
      "outputs": [],
      "stateMutability": "nonpayable",
      "type": "function"
    },
    {
      "inputs": [
        {
          "internalType": "address",
          "name": "from",
          "type": "address"
        },
        {
          "internalType": "address",
          "name": "to",
          "type": "address"
        },
        {
          "internalType": "uint256",
          "name": "tokenId",
          "type": "uint256"
        }
      ],
      "name": "safeTransferFrom",
      "outputs": [],
      "stateMutability": "nonpayable",
      "type": "function"
    },
    {
      "inputs": [
        {
          "internalType": "address",
          "name": "from",
          "type": "address"
        },
        {
          "internalType": "address",
          "name": "to",
          "type": "address"
        },
        {
          "internalType": "uint256",
          "name": "tokenId",
          "type": "uint256"
        },
        {
          "internalType": "bytes",
          "name": "_data",
          "type": "bytes"
        }
      ],
      "name": "safeTransferFrom",
      "outputs": [],
      "stateMutability": "nonpayable",
      "type": "function"
    },
    {
      "inputs": [
        {
          "internalType": "address",
          "name": "operator",
          "type": "address"
        },
        {
          "internalType": "bool",
          "name": "approved",
          "type": "bool"
        }
      ],
      "name": "setApprovalForAll",
      "outputs": [],
      "stateMutability": "nonpayable",
      "type": "function"
    },
    {
      "inputs": [
        {
          "internalType": "bytes4",
          "name": "interfaceId",
          "type": "bytes4"
        }
      ],
      "name": "supportsInterface",
      "outputs": [
        {
          "internalType": "bool",
          "name": "",
          "type": "bool"
        }
      ],
      "stateMutability": "view",
      "type": "function"
    },
    {
      "inputs": [],
      "name": "sweep",
      "outputs": [],
      "stateMutability": "nonpayable",
      "type": "function"
    },
    {
      "inputs": [],
      "name": "symbol",
      "outputs": [
        {
          "internalType": "string",
          "name": "",
          "type": "string"
        }
      ],
      "stateMutability": "view",
      "type": "function"
    },
    {
      "inputs": [
        {
          "internalType": "uint256",
          "name": "index",
          "type": "uint256"
        }
      ],
      "name": "tokenByIndex",
      "outputs": [
        {
          "internalType": "uint256",
          "name": "",
          "type": "uint256"
        }
      ],
      "stateMutability": "view",
      "type": "function"
    },
    {
      "inputs": [
        {
          "internalType": "address",
          "name": "owner",
          "type": "address"
        },
        {
          "internalType": "uint256",
          "name": "index",
          "type": "uint256"
        }
      ],
      "name": "tokenOfOwnerByIndex",
      "outputs": [
        {
          "internalType": "uint256",
          "name": "",
          "type": "uint256"
        }
      ],
      "stateMutability": "view",
      "type": "function"
    },
    {
      "inputs": [
        {
          "internalType": "uint256",
          "name": "tokenId",
          "type": "uint256"
        }
      ],
      "name": "tokenURI",
      "outputs": [
        {
          "internalType": "string",
          "name": "",
          "type": "string"
        }
      ],
      "stateMutability": "view",
      "type": "function"
    },
    {
      "inputs": [],
      "name": "totalSupply",
      "outputs": [
        {
          "internalType": "uint256",
          "name": "",
          "type": "uint256"
        }
      ],
      "stateMutability": "view",
      "type": "function"
    },
    {
      "inputs": [
        {
          "internalType": "address",
          "name": "from",
          "type": "address"
        },
        {
          "internalType": "address",
          "name": "to",
          "type": "address"
        },
        {
          "internalType": "uint256",
          "name": "tokenId",
          "type": "uint256"
        }
      ],
      "name": "transferFrom",
      "outputs": [],
      "stateMutability": "nonpayable",
      "type": "function"
    },
    {
      "inputs": [
        {
          "internalType": "address",
          "name": "newOwner",
          "type": "address"
        }
      ],
      "name": "transferOwnership",
      "outputs": [],
      "stateMutability": "nonpayable",
      "type": "function"
    }
  ],
  "transactionHash": "0x0df6806c8b468258a74b970671528b27b8deb15deffd470dcd9ac2586cb21af4",
  "args": [
    "0x55943f532412a9f88b88fd0c5ce4abdb30da2f68dd0abe0308dfc1e88f045c20"
  ],
  "solcInputHash": "15eba6b15e3c29e24557d20a5408c444",
  "bytecode": "0x60e06040526000805560006007553480156200001a57600080fd5b506040516200232c3803806200232c8339810160408190526200003d9162000225565b604051806040016040528060068152602001654875786c787960d01b815250604051806040016040528060068152602001654855584c585960d01b81525061035260008111620000e35760405162461bcd60e51b815260206004820152602760248201527f455243373231413a206d61782062617463682073697a65206d757374206265206044820152666e6f6e7a65726f60c81b606482015260840160405180910390fd5b8251620000f89060019060208601906200017f565b5081516200010e9060029060208501906200017f565b5060805250620001209050336200012d565b60a0524260c0526200027c565b600880546001600160a01b038381166001600160a01b0319831681179093556040519116919082907f8be0079c531659141344cd1fd0a4f28419497f9722a3daafe3b4186f6b6457e090600090a35050565b8280546200018d906200023f565b90600052602060002090601f016020900481019282620001b15760008555620001fc565b82601f10620001cc57805160ff1916838001178555620001fc565b82800160010185558215620001fc579182015b82811115620001fc578251825591602001919060010190620001df565b506200020a9291506200020e565b5090565b5b808211156200020a57600081556001016200020f565b6000602082840312156200023857600080fd5b5051919050565b600181811c908216806200025457607f821691505b602082108114156200027657634e487b7160e01b600052602260045260246000fd5b50919050565b60805160a05160c05161206b620002c160003960006107f001526000818161021f0152610a4301526000818161132b015281816113550152611795015261206b6000f3fe608060405234801561001057600080fd5b50600436106101735760003560e01c8063641ce140116100de57806395d89b4111610097578063c87b56dd11610071578063c87b56dd14610336578063d7224ba014610349578063e985e9c514610352578063f2fde38b1461038e57600080fd5b806395d89b4114610308578063a22cb46514610310578063b88d4fde1461032357600080fd5b8063641ce140146102955780636c0360eb146102a857806370a08231146102b0578063715018a6146102c35780638cc08025146102cb5780638da5cb5b146102f757600080fd5b80632eb4a7ab116101305780632eb4a7ab1461021a5780632f745c591461024157806335faa4161461025457806342842e0e1461025c5780634f6ccce71461026f5780636352211e1461028257600080fd5b806301ffc9a71461017857806306fdde03146101a0578063081812fc146101b5578063095ea7b3146101e057806318160ddd146101f557806323b872dd14610207575b600080fd5b61018b610186366004611a75565b6103a1565b60405190151581526020015b60405180910390f35b6101a861040e565b6040516101979190611aea565b6101c86101c3366004611afd565b6104a0565b6040516001600160a01b039091168152602001610197565b6101f36101ee366004611b32565b610530565b005b6000545b604051908152602001610197565b6101f3610215366004611b5c565b610648565b6101f97f000000000000000000000000000000000000000000000000000000000000000081565b6101f961024f366004611b32565b610653565b6101f36107c1565b6101f361026a366004611b5c565b610886565b6101f961027d366004611afd565b6108a1565b6101c8610290366004611afd565b610903565b6101f36102a3366004611b98565b610915565b6101a8610adf565b6101f96102be366004611c22565b610b6d565b6101f3610bfe565b61018b6102d9366004611c22565b6001600160a01b03166000908152600a602052604090205460ff1690565b6008546001600160a01b03166101c8565b6101a8610c32565b6101f361031e366004611c3d565b610c41565b6101f3610331366004611c8f565b610d06565b6101a8610344366004611afd565b610d3f565b6101f960075481565b61018b610360366004611d6b565b6001600160a01b03918216600090815260066020908152604080832093909416825291909152205460ff1690565b6101f361039c366004611c22565b610e0c565b60006001600160e01b031982166380ac58cd60e01b14806103d257506001600160e01b03198216635b5e139f60e01b145b806103ed57506001600160e01b0319821663780e9d6360e01b145b8061040857506301ffc9a760e01b6001600160e01b03198316145b92915050565b60606001805461041d90611d9e565b80601f016020809104026020016040519081016040528092919081815260200182805461044990611d9e565b80156104965780601f1061046b57610100808354040283529160200191610496565b820191906000526020600020905b81548152906001019060200180831161047957829003601f168201915b5050505050905090565b60006104ad826000541190565b6105145760405162461bcd60e51b815260206004820152602d60248201527f455243373231413a20617070726f76656420717565727920666f72206e6f6e6560448201526c3c34b9ba32b73a103a37b5b2b760991b60648201526084015b60405180910390fd5b506000908152600560205260409020546001600160a01b031690565b600061053b82610903565b9050806001600160a01b0316836001600160a01b031614156105aa5760405162461bcd60e51b815260206004820152602260248201527f455243373231413a20617070726f76616c20746f2063757272656e74206f776e60448201526132b960f11b606482015260840161050b565b336001600160a01b03821614806105c657506105c68133610360565b6106385760405162461bcd60e51b815260206004820152603960248201527f455243373231413a20617070726f76652063616c6c6572206973206e6f74206f60448201527f776e6572206e6f7220617070726f76656420666f7220616c6c00000000000000606482015260840161050b565b610643838383610ea7565b505050565b610643838383610f03565b600061065e83610b6d565b82106106b75760405162461bcd60e51b815260206004820152602260248201527f455243373231413a206f776e657220696e646578206f7574206f6620626f756e604482015261647360f01b606482015260840161050b565b600080549080805b83811015610761576000818152600360209081526040918290208251808401909352546001600160a01b038116808452600160a01b90910467ffffffffffffffff16918301919091521561071257805192505b876001600160a01b0316836001600160a01b0316141561074e57868414156107405750935061040892505050565b8361074a81611def565b9450505b508061075981611def565b9150506106bf565b5060405162461bcd60e51b815260206004820152602e60248201527f455243373231413a20756e61626c6520746f2067657420746f6b656e206f662060448201526d0deeedccae440c4f240d2dcc8caf60931b606482015260840161050b565b6008546001600160a01b031633146107eb5760405162461bcd60e51b815260040161050b90611e0a565b6108187f000000000000000000000000000000000000000000000000000000000000000062278d00611e3f565b42116108665760405162461bcd60e51b815260206004820152601d60248201527f41697264726f7020706572696f6420686173206e6f7420656e6465642e000000604482015260640161050b565b6108843361087360005490565b61087f90612710611e57565b61128b565b565b61064383838360405180602001604052806000815250610d06565b6000805482106108ff5760405162461bcd60e51b815260206004820152602360248201527f455243373231413a20676c6f62616c20696e646578206f7574206f6620626f756044820152626e647360e81b606482015260840161050b565b5090565b600061090e826112a9565b5192915050565b6001600160a01b0384166000908152600a602052604090205460ff161561097e5760405162461bcd60e51b815260206004820152601860248201527f41697264726f7020616c726561647920636c61696d65642e0000000000000000604482015260640161050b565b61271061098a60005490565b106109cd5760405162461bcd60e51b815260206004820152601360248201527226b4b73a103634b6b4ba103932b0b1b432b21760691b604482015260640161050b565b6040516bffffffffffffffffffffffff19606086901b16602082015260348101849052600090605401604051602081830303815290604052805190602001209050610a6e8383808060200260200160405190810160405280939291908181526020018383602002808284376000920191909152507f000000000000000000000000000000000000000000000000000000000000000092508591506114539050565b610aab5760405162461bcd60e51b815260206004820152600e60248201526d24b73b30b634b210383937b7b31760911b604482015260640161050b565b6001600160a01b0385166000908152600a60205260409020805460ff19166001179055610ad8858561128b565b5050505050565b60098054610aec90611d9e565b80601f0160208091040260200160405190810160405280929190818152602001828054610b1890611d9e565b8015610b655780601f10610b3a57610100808354040283529160200191610b65565b820191906000526020600020905b815481529060010190602001808311610b4857829003601f168201915b505050505081565b60006001600160a01b038216610bd95760405162461bcd60e51b815260206004820152602b60248201527f455243373231413a2062616c616e636520717565727920666f7220746865207a60448201526a65726f206164647265737360a81b606482015260840161050b565b506001600160a01b03166000908152600460205260409020546001600160801b031690565b6008546001600160a01b03163314610c285760405162461bcd60e51b815260040161050b90611e0a565b6108846000611469565b60606002805461041d90611d9e565b6001600160a01b038216331415610c9a5760405162461bcd60e51b815260206004820152601a60248201527f455243373231413a20617070726f766520746f2063616c6c6572000000000000604482015260640161050b565b3360008181526006602090815260408083206001600160a01b03871680855290835292819020805460ff191686151590811790915590519081529192917f17307eab39ab6107e8899845ad3d59bd9653f200f220920489ca2b5937696c31910160405180910390a35050565b610d11848484610f03565b610d1d848484846114bb565b610d395760405162461bcd60e51b815260040161050b90611e6e565b50505050565b6060610d4c826000541190565b610db05760405162461bcd60e51b815260206004820152602f60248201527f4552433732314d657461646174613a2055524920717565727920666f72206e6f60448201526e3732bc34b9ba32b73a103a37b5b2b760891b606482015260840161050b565b6000610dba6115ba565b90506000815111610dda5760405180602001604052806000815250610e05565b80610de4846115da565b604051602001610df5929190611ec1565b6040516020818303038152906040525b9392505050565b6008546001600160a01b03163314610e365760405162461bcd60e51b815260040161050b90611e0a565b6001600160a01b038116610e9b5760405162461bcd60e51b815260206004820152602660248201527f4f776e61626c653a206e6577206f776e657220697320746865207a65726f206160448201526564647265737360d01b606482015260840161050b565b610ea481611469565b50565b60008281526005602052604080822080546001600160a01b0319166001600160a01b0387811691821790925591518593918516917f8c5be1e5ebec7d5bd14f71427d1e84f3dd0314c0f7b2291e5b200ac8c7c3b92591a4505050565b6000610f0e826112a9565b80519091506000906001600160a01b0316336001600160a01b03161480610f45575033610f3a846104a0565b6001600160a01b0316145b80610f5757508151610f579033610360565b905080610fc15760405162461bcd60e51b815260206004820152603260248201527f455243373231413a207472616e736665722063616c6c6572206973206e6f74206044820152711bdddb995c881b9bdc88185c1c1c9bdd995960721b606482015260840161050b565b846001600160a01b031682600001516001600160a01b0316146110355760405162461bcd60e51b815260206004820152602660248201527f455243373231413a207472616e736665722066726f6d20696e636f72726563746044820152651037bbb732b960d11b606482015260840161050b565b6001600160a01b0384166110995760405162461bcd60e51b815260206004820152602560248201527f455243373231413a207472616e7366657220746f20746865207a65726f206164604482015264647265737360d81b606482015260840161050b565b6110a96000848460000151610ea7565b6001600160a01b03851660009081526004602052604081208054600192906110db9084906001600160801b0316611ef0565b82546101009290920a6001600160801b038181021990931691831602179091556001600160a01b0386166000908152600460205260408120805460019450909261112791859116611f18565b82546001600160801b039182166101009390930a9283029190920219909116179055506040805180820182526001600160a01b03808716825267ffffffffffffffff428116602080850191825260008981526003909152948520935184549151909216600160a01b026001600160e01b031990911691909216171790556111af846001611e3f565b6000818152600360205260409020549091506001600160a01b0316611241576111d9816000541190565b156112415760408051808201825284516001600160a01b03908116825260208087015167ffffffffffffffff9081168285019081526000878152600390935294909120925183549451909116600160a01b026001600160e01b03199094169116179190911790555b83856001600160a01b0316876001600160a01b03167fddf252ad1be2c89b69c2b068fc378daa952ba7f163c4a11628f55a4df523b3ef60405160405180910390a45b505050505050565b6112a58282604051806020016040528060008152506116d8565b5050565b60408051808201909152600080825260208201526112c8826000541190565b6113275760405162461bcd60e51b815260206004820152602a60248201527f455243373231413a206f776e657220717565727920666f72206e6f6e657869736044820152693a32b73a103a37b5b2b760b11b606482015260840161050b565b60007f000000000000000000000000000000000000000000000000000000000000000083106113885761137a7f000000000000000000000000000000000000000000000000000000000000000084611e57565b611385906001611e3f565b90505b825b8181106113f2576000818152600360209081526040918290208251808401909352546001600160a01b038116808452600160a01b90910467ffffffffffffffff1691830191909152156113df57949350505050565b50806113ea81611f3a565b91505061138a565b5060405162461bcd60e51b815260206004820152602f60248201527f455243373231413a20756e61626c6520746f2064657465726d696e652074686560448201526e1037bbb732b91037b3103a37b5b2b760891b606482015260840161050b565b60008261146085846119b3565b14949350505050565b600880546001600160a01b038381166001600160a01b0319831681179093556040519116919082907f8be0079c531659141344cd1fd0a4f28419497f9722a3daafe3b4186f6b6457e090600090a35050565b60006001600160a01b0384163b156115ae57604051630a85bd0160e11b81526001600160a01b0385169063150b7a02906114ff903390899088908890600401611f51565b6020604051808303816000875af192505050801561153a575060408051601f3d908101601f1916820190925261153791810190611f8e565b60015b611594573d808015611568576040519150601f19603f3d011682016040523d82523d6000602084013e61156d565b606091505b50805161158c5760405162461bcd60e51b815260040161050b90611e6e565b805181602001fd5b6001600160e01b031916630a85bd0160e11b1490506115b2565b5060015b949350505050565b606060405180606001604052806036815260200161200060369139905090565b6060816115fe5750506040805180820190915260018152600360fc1b602082015290565b8160005b8115611628578061161281611def565b91506116219050600a83611fc1565b9150611602565b60008167ffffffffffffffff81111561164357611643611c79565b6040519080825280601f01601f19166020018201604052801561166d576020820181803683370190505b5090505b84156115b257611682600183611e57565b915061168f600a86611fd5565b61169a906030611e3f565b60f81b8183815181106116af576116af611fe9565b60200101906001600160f81b031916908160001a9053506116d1600a86611fc1565b9450611671565b6000546001600160a01b03841661173b5760405162461bcd60e51b815260206004820152602160248201527f455243373231413a206d696e7420746f20746865207a65726f206164647265736044820152607360f81b606482015260840161050b565b611746816000541190565b156117935760405162461bcd60e51b815260206004820152601d60248201527f455243373231413a20746f6b656e20616c7265616479206d696e746564000000604482015260640161050b565b7f000000000000000000000000000000000000000000000000000000000000000083111561180e5760405162461bcd60e51b815260206004820152602260248201527f455243373231413a207175616e7469747920746f206d696e7420746f6f2068696044820152610ced60f31b606482015260840161050b565b6001600160a01b0384166000908152600460209081526040918290208251808401845290546001600160801b038082168352600160801b909104169181019190915281518083019092528051909190819061186a908790611f18565b6001600160801b031681526020018583602001516118889190611f18565b6001600160801b039081169091526001600160a01b0380881660008181526004602090815260408083208751978301518716600160801b0297909616969096179094558451808601865291825267ffffffffffffffff4281168386019081528883526003909552948120915182549451909516600160a01b026001600160e01b031990941694909216939093179190911790915582905b858110156119a85760405182906001600160a01b038916906000907fddf252ad1be2c89b69c2b068fc378daa952ba7f163c4a11628f55a4df523b3ef908290a461196c60008884886114bb565b6119885760405162461bcd60e51b815260040161050b90611e6e565b8161199281611def565b92505080806119a090611def565b91505061191f565b506000819055611283565b600081815b8451811015611a575760008582815181106119d5576119d5611fe9565b60200260200101519050808311611a17576040805160208101859052908101829052606001604051602081830303815290604052805190602001209250611a44565b60408051602081018390529081018490526060016040516020818303038152906040528051906020012092505b5080611a4f81611def565b9150506119b8565b509392505050565b6001600160e01b031981168114610ea457600080fd5b600060208284031215611a8757600080fd5b8135610e0581611a5f565b60005b83811015611aad578181015183820152602001611a95565b83811115610d395750506000910152565b60008151808452611ad6816020860160208601611a92565b601f01601f19169290920160200192915050565b602081526000610e056020830184611abe565b600060208284031215611b0f57600080fd5b5035919050565b80356001600160a01b0381168114611b2d57600080fd5b919050565b60008060408385031215611b4557600080fd5b611b4e83611b16565b946020939093013593505050565b600080600060608486031215611b7157600080fd5b611b7a84611b16565b9250611b8860208501611b16565b9150604084013590509250925092565b60008060008060608587031215611bae57600080fd5b611bb785611b16565b935060208501359250604085013567ffffffffffffffff80821115611bdb57600080fd5b818701915087601f830112611bef57600080fd5b813581811115611bfe57600080fd5b8860208260051b8501011115611c1357600080fd5b95989497505060200194505050565b600060208284031215611c3457600080fd5b610e0582611b16565b60008060408385031215611c5057600080fd5b611c5983611b16565b915060208301358015158114611c6e57600080fd5b809150509250929050565b634e487b7160e01b600052604160045260246000fd5b60008060008060808587031215611ca557600080fd5b611cae85611b16565b9350611cbc60208601611b16565b925060408501359150606085013567ffffffffffffffff80821115611ce057600080fd5b818701915087601f830112611cf457600080fd5b813581811115611d0657611d06611c79565b604051601f8201601f19908116603f01168101908382118183101715611d2e57611d2e611c79565b816040528281528a6020848701011115611d4757600080fd5b82602086016020830137600060208483010152809550505050505092959194509250565b60008060408385031215611d7e57600080fd5b611d8783611b16565b9150611d9560208401611b16565b90509250929050565b600181811c90821680611db257607f821691505b60208210811415611dd357634e487b7160e01b600052602260045260246000fd5b50919050565b634e487b7160e01b600052601160045260246000fd5b6000600019821415611e0357611e03611dd9565b5060010190565b6020808252818101527f4f776e61626c653a2063616c6c6572206973206e6f7420746865206f776e6572604082015260600190565b60008219821115611e5257611e52611dd9565b500190565b600082821015611e6957611e69611dd9565b500390565b60208082526033908201527f455243373231413a207472616e7366657220746f206e6f6e204552433732315260408201527232b1b2b4bb32b91034b6b83632b6b2b73a32b960691b606082015260800190565b60008351611ed3818460208801611a92565b835190830190611ee7818360208801611a92565b01949350505050565b60006001600160801b0383811690831681811015611f1057611f10611dd9565b039392505050565b60006001600160801b03808316818516808303821115611ee757611ee7611dd9565b600081611f4957611f49611dd9565b506000190190565b6001600160a01b0385811682528416602082015260408101839052608060608201819052600090611f8490830184611abe565b9695505050505050565b600060208284031215611fa057600080fd5b8151610e0581611a5f565b634e487b7160e01b600052601260045260246000fd5b600082611fd057611fd0611fab565b500490565b600082611fe457611fe4611fab565b500690565b634e487b7160e01b600052603260045260246000fdfe697066733a2f2f516d575257656271614b31736542794c674b5548514850747773314e746d426f7867787376476a514c6a5a5534522fa2646970667358221220e8c9a6ddfbe28092aec9ab32168d149fb10d87535ba05eae7310e044b9c5117764736f6c634300080b0033",
  "devdoc": {
    "kind": "dev",
    "methods": {
      "approve(address,uint256)": {
        "details": "See {IERC721-approve}."
      },
      "balanceOf(address)": {
        "details": "See {IERC721-balanceOf}."
      },
      "getApproved(uint256)": {
        "details": "See {IERC721-getApproved}."
      },
      "isApprovedForAll(address,address)": {
        "details": "See {IERC721-isApprovedForAll}."
      },
      "name()": {
        "details": "See {IERC721Metadata-name}."
      },
      "owner()": {
        "details": "Returns the address of the current owner."
      },
      "ownerOf(uint256)": {
        "details": "See {IERC721-ownerOf}."
      },
      "renounceOwnership()": {
        "details": "Leaves the contract without owner. It will not be possible to call `onlyOwner` functions anymore. Can only be called by the current owner. NOTE: Renouncing ownership will leave the contract without an owner, thereby removing any functionality that is only available to the owner."
      },
      "safeTransferFrom(address,address,uint256)": {
        "details": "See {IERC721-safeTransferFrom}."
      },
      "safeTransferFrom(address,address,uint256,bytes)": {
        "details": "See {IERC721-safeTransferFrom}."
      },
      "setApprovalForAll(address,bool)": {
        "details": "See {IERC721-setApprovalForAll}."
      },
      "supportsInterface(bytes4)": {
        "details": "See {IERC165-supportsInterface}."
      },
      "symbol()": {
        "details": "See {IERC721Metadata-symbol}."
      },
      "tokenByIndex(uint256)": {
        "details": "See {IERC721Enumerable-tokenByIndex}."
      },
      "tokenOfOwnerByIndex(address,uint256)": {
        "details": "See {IERC721Enumerable-tokenOfOwnerByIndex}. This read function is O(totalSupply). If calling from a separate contract, be sure to test gas first. It may also degrade with extremely large collection sizes (e.g >> 10000), test for your use case."
      },
      "tokenURI(uint256)": {
        "details": "See {IERC721Metadata-tokenURI}."
      },
      "totalSupply()": {
        "details": "See {IERC721Enumerable-totalSupply}."
      },
      "transferFrom(address,address,uint256)": {
        "details": "See {IERC721-transferFrom}."
      },
      "transferOwnership(address)": {
        "details": "Transfers ownership of the contract to a new account (`newOwner`). Can only be called by the current owner."
      }
    },
    "version": 1
  },
  "userdoc": {
    "kind": "user",
    "methods": {},
    "version": 1
  },
  "storageLayout": {
    "storage": [
      {
        "astId": 982,
        "contract": "contracts/HuxlxyNFT.sol:HuxlxyNFT",
        "label": "currentIndex",
        "offset": 0,
        "slot": "0",
        "type": "t_uint256"
      },
      {
        "astId": 986,
        "contract": "contracts/HuxlxyNFT.sol:HuxlxyNFT",
        "label": "_name",
        "offset": 0,
        "slot": "1",
        "type": "t_string_storage"
      },
      {
        "astId": 988,
        "contract": "contracts/HuxlxyNFT.sol:HuxlxyNFT",
        "label": "_symbol",
        "offset": 0,
        "slot": "2",
        "type": "t_string_storage"
      },
      {
        "astId": 993,
        "contract": "contracts/HuxlxyNFT.sol:HuxlxyNFT",
        "label": "_ownerships",
        "offset": 0,
        "slot": "3",
        "type": "t_mapping(t_uint256,t_struct(TokenOwnership)974_storage)"
      },
      {
        "astId": 998,
        "contract": "contracts/HuxlxyNFT.sol:HuxlxyNFT",
        "label": "_addressData",
        "offset": 0,
        "slot": "4",
        "type": "t_mapping(t_address,t_struct(AddressData)979_storage)"
      },
      {
        "astId": 1002,
        "contract": "contracts/HuxlxyNFT.sol:HuxlxyNFT",
        "label": "_tokenApprovals",
        "offset": 0,
        "slot": "5",
        "type": "t_mapping(t_uint256,t_address)"
      },
      {
        "astId": 1008,
        "contract": "contracts/HuxlxyNFT.sol:HuxlxyNFT",
        "label": "_operatorApprovals",
        "offset": 0,
        "slot": "6",
        "type": "t_mapping(t_address,t_mapping(t_address,t_bool))"
      },
      {
        "astId": 1938,
        "contract": "contracts/HuxlxyNFT.sol:HuxlxyNFT",
        "label": "nextOwnerToExplicitlySet",
        "offset": 0,
        "slot": "7",
        "type": "t_uint256"
      },
      {
        "astId": 7,
        "contract": "contracts/HuxlxyNFT.sol:HuxlxyNFT",
        "label": "_owner",
        "offset": 0,
        "slot": "8",
        "type": "t_address"
      },
      {
        "astId": 2133,
        "contract": "contracts/HuxlxyNFT.sol:HuxlxyNFT",
        "label": "baseURI",
        "offset": 0,
        "slot": "9",
        "type": "t_string_storage"
      },
      {
        "astId": 2141,
        "contract": "contracts/HuxlxyNFT.sol:HuxlxyNFT",
        "label": "claimed",
        "offset": 0,
        "slot": "10",
        "type": "t_mapping(t_address,t_bool)"
      }
    ],
    "types": {
      "t_address": {
        "encoding": "inplace",
        "label": "address",
        "numberOfBytes": "20"
      },
      "t_bool": {
        "encoding": "inplace",
        "label": "bool",
        "numberOfBytes": "1"
      },
      "t_mapping(t_address,t_bool)": {
        "encoding": "mapping",
        "key": "t_address",
        "label": "mapping(address => bool)",
        "numberOfBytes": "32",
        "value": "t_bool"
      },
      "t_mapping(t_address,t_mapping(t_address,t_bool))": {
        "encoding": "mapping",
        "key": "t_address",
        "label": "mapping(address => mapping(address => bool))",
        "numberOfBytes": "32",
        "value": "t_mapping(t_address,t_bool)"
      },
      "t_mapping(t_address,t_struct(AddressData)979_storage)": {
        "encoding": "mapping",
        "key": "t_address",
        "label": "mapping(address => struct ERC721A.AddressData)",
        "numberOfBytes": "32",
        "value": "t_struct(AddressData)979_storage"
      },
      "t_mapping(t_uint256,t_address)": {
        "encoding": "mapping",
        "key": "t_uint256",
        "label": "mapping(uint256 => address)",
        "numberOfBytes": "32",
        "value": "t_address"
      },
      "t_mapping(t_uint256,t_struct(TokenOwnership)974_storage)": {
        "encoding": "mapping",
        "key": "t_uint256",
        "label": "mapping(uint256 => struct ERC721A.TokenOwnership)",
        "numberOfBytes": "32",
        "value": "t_struct(TokenOwnership)974_storage"
      },
      "t_string_storage": {
        "encoding": "bytes",
        "label": "string",
        "numberOfBytes": "32"
      },
      "t_struct(AddressData)979_storage": {
        "encoding": "inplace",
        "label": "struct ERC721A.AddressData",
        "members": [
          {
            "astId": 976,
            "contract": "contracts/HuxlxyNFT.sol:HuxlxyNFT",
            "label": "balance",
            "offset": 0,
            "slot": "0",
            "type": "t_uint128"
          },
          {
            "astId": 978,
            "contract": "contracts/HuxlxyNFT.sol:HuxlxyNFT",
            "label": "numberMinted",
            "offset": 16,
            "slot": "0",
            "type": "t_uint128"
          }
        ],
        "numberOfBytes": "32"
      },
      "t_struct(TokenOwnership)974_storage": {
        "encoding": "inplace",
        "label": "struct ERC721A.TokenOwnership",
        "members": [
          {
            "astId": 971,
            "contract": "contracts/HuxlxyNFT.sol:HuxlxyNFT",
            "label": "addr",
            "offset": 0,
            "slot": "0",
            "type": "t_address"
          },
          {
            "astId": 973,
            "contract": "contracts/HuxlxyNFT.sol:HuxlxyNFT",
            "label": "startTimestamp",
            "offset": 20,
            "slot": "0",
            "type": "t_uint64"
          }
        ],
        "numberOfBytes": "32"
      },
      "t_uint128": {
        "encoding": "inplace",
        "label": "uint128",
        "numberOfBytes": "16"
      },
      "t_uint256": {
        "encoding": "inplace",
        "label": "uint256",
        "numberOfBytes": "32"
      },
      "t_uint64": {
        "encoding": "inplace",
        "label": "uint64",
        "numberOfBytes": "8"
      }
    }
  }
}