{
  "address": "0x40918Ba7f132E0aCba2CE4de4c4baF9BD2D7D849",
  "abi": [
    {
      "inputs": [
        {
          "internalType": "bytes32",
          "name": "merkleRoot_",
          "type": "bytes32"
        }
      ],
      "stateMutability": "nonpayable",
      "type": "constructor"
    },
    {
      "anonymous": false,
      "inputs": [
        {
          "indexed": true,
          "internalType": "address",
          "name": "owner",
          "type": "address"
        },
        {
          "indexed": true,
          "internalType": "address",
          "name": "approved",
          "type": "address"
        },
        {
          "indexed": true,
          "internalType": "uint256",
          "name": "tokenId",
          "type": "uint256"
        }
      ],
      "name": "Approval",
      "type": "event"
    },
    {
      "anonymous": false,
      "inputs": [
        {
          "indexed": true,
          "internalType": "address",
          "name": "owner",
          "type": "address"
        },
        {
          "indexed": true,
          "internalType": "address",
          "name": "operator",
          "type": "address"
        },
        {
          "indexed": false,
          "internalType": "bool",
          "name": "approved",
          "type": "bool"
        }
      ],
      "name": "ApprovalForAll",
      "type": "event"
    },
    {
      "anonymous": false,
      "inputs": [
        {
          "indexed": true,
          "internalType": "address",
          "name": "previousOwner",
          "type": "address"
        },
        {
          "indexed": true,
          "internalType": "address",
          "name": "newOwner",
          "type": "address"
        }
      ],
      "name": "OwnershipTransferred",
      "type": "event"
    },
    {
      "anonymous": false,
      "inputs": [
        {
          "indexed": true,
          "internalType": "address",
          "name": "from",
          "type": "address"
        },
        {
          "indexed": true,
          "internalType": "address",
          "name": "to",
          "type": "address"
        },
        {
          "indexed": true,
          "internalType": "uint256",
          "name": "tokenId",
          "type": "uint256"
        }
      ],
      "name": "Transfer",
      "type": "event"
    },
    {
      "inputs": [
        {
          "internalType": "address",
          "name": "to",
          "type": "address"
        },
        {
          "internalType": "uint256",
          "name": "tokenId",
          "type": "uint256"
        }
      ],
      "name": "approve",
      "outputs": [],
      "stateMutability": "nonpayable",
      "type": "function"
    },
    {
      "inputs": [
        {
          "internalType": "address",
          "name": "owner",
          "type": "address"
        }
      ],
      "name": "balanceOf",
      "outputs": [
        {
          "internalType": "uint256",
          "name": "",
          "type": "uint256"
        }
      ],
      "stateMutability": "view",
      "type": "function"
    },
    {
      "inputs": [
        {
          "internalType": "uint256",
          "name": "tokenId",
          "type": "uint256"
        }
      ],
      "name": "getApproved",
      "outputs": [
        {
          "internalType": "address",
          "name": "",
          "type": "address"
        }
      ],
      "stateMutability": "view",
      "type": "function"
    },
    {
      "inputs": [
        {
          "internalType": "address",
          "name": "owner",
          "type": "address"
        },
        {
          "internalType": "address",
          "name": "operator",
          "type": "address"
        }
      ],
      "name": "isApprovedForAll",
      "outputs": [
        {
          "internalType": "bool",
          "name": "",
          "type": "bool"
        }
      ],
      "stateMutability": "view",
      "type": "function"
    },
    {
      "inputs": [
        {
          "internalType": "address",
          "name": "user",
          "type": "address"
        }
      ],
      "name": "isClaimed",
      "outputs": [
        {
          "internalType": "bool",
          "name": "",
          "type": "bool"
        }
      ],
      "stateMutability": "view",
      "type": "function"
    },
    {
      "inputs": [],
      "name": "merkleRoot",
      "outputs": [
        {
          "internalType": "bytes32",
          "name": "",
          "type": "bytes32"
        }
      ],
      "stateMutability": "view",
      "type": "function"
    },
    {
      "inputs": [
        {
          "internalType": "address",
          "name": "account",
          "type": "address"
        },
        {
          "internalType": "uint256",
          "name": "amount",
          "type": "uint256"
        },
        {
          "internalType": "bytes32[]",
          "name": "merkleProof",
          "type": "bytes32[]"
        }
      ],
      "name": "mint",
      "outputs": [],
      "stateMutability": "nonpayable",
      "type": "function"
    },
    {
      "inputs": [],
      "name": "name",
      "outputs": [
        {
          "internalType": "string",
          "name": "",
          "type": "string"
        }
      ],
      "stateMutability": "view",
      "type": "function"
    },
    {
      "inputs": [],
      "name": "owner",
      "outputs": [
        {
          "internalType": "address",
          "name": "",
          "type": "address"
        }
      ],
      "stateMutability": "view",
      "type": "function"
    },
    {
      "inputs": [
        {
          "internalType": "uint256",
          "name": "tokenId",
          "type": "uint256"
        }
      ],
      "name": "ownerOf",
      "outputs": [
        {
          "internalType": "address",
          "name": "",
          "type": "address"
        }
      ],
      "stateMutability": "view",
      "type": "function"
    },
    {
      "inputs": [],
      "name": "renounceOwnership",
      "outputs": [],
      "stateMutability": "nonpayable",
      "type": "function"
    },
    {
      "inputs": [
        {
          "internalType": "address",
          "name": "from",
          "type": "address"
        },
        {
          "internalType": "address",
          "name": "to",
          "type": "address"
        },
        {
          "internalType": "uint256",
          "name": "tokenId",
          "type": "uint256"
        }
      ],
      "name": "safeTransferFrom",
      "outputs": [],
      "stateMutability": "nonpayable",
      "type": "function"
    },
    {
      "inputs": [
        {
          "internalType": "address",
          "name": "from",
          "type": "address"
        },
        {
          "internalType": "address",
          "name": "to",
          "type": "address"
        },
        {
          "internalType": "uint256",
          "name": "tokenId",
          "type": "uint256"
        },
        {
          "internalType": "bytes",
          "name": "_data",
          "type": "bytes"
        }
      ],
      "name": "safeTransferFrom",
      "outputs": [],
      "stateMutability": "nonpayable",
      "type": "function"
    },
    {
      "inputs": [
        {
          "internalType": "address",
          "name": "operator",
          "type": "address"
        },
        {
          "internalType": "bool",
          "name": "approved",
          "type": "bool"
        }
      ],
      "name": "setApprovalForAll",
      "outputs": [],
      "stateMutability": "nonpayable",
      "type": "function"
    },
    {
      "inputs": [
        {
          "internalType": "string",
          "name": "baseURI_",
          "type": "string"
        }
      ],
      "name": "setBaseURI",
      "outputs": [],
      "stateMutability": "nonpayable",
      "type": "function"
    },
    {
      "inputs": [
        {
          "internalType": "bytes4",
          "name": "interfaceId",
          "type": "bytes4"
        }
      ],
      "name": "supportsInterface",
      "outputs": [
        {
          "internalType": "bool",
          "name": "",
          "type": "bool"
        }
      ],
      "stateMutability": "view",
      "type": "function"
    },
    {
      "inputs": [],
      "name": "sweep",
      "outputs": [],
      "stateMutability": "nonpayable",
      "type": "function"
    },
    {
      "inputs": [],
      "name": "symbol",
      "outputs": [
        {
          "internalType": "string",
          "name": "",
          "type": "string"
        }
      ],
      "stateMutability": "view",
      "type": "function"
    },
    {
      "inputs": [
        {
          "internalType": "uint256",
          "name": "index",
          "type": "uint256"
        }
      ],
      "name": "tokenByIndex",
      "outputs": [
        {
          "internalType": "uint256",
          "name": "",
          "type": "uint256"
        }
      ],
      "stateMutability": "view",
      "type": "function"
    },
    {
      "inputs": [
        {
          "internalType": "address",
          "name": "owner",
          "type": "address"
        },
        {
          "internalType": "uint256",
          "name": "index",
          "type": "uint256"
        }
      ],
      "name": "tokenOfOwnerByIndex",
      "outputs": [
        {
          "internalType": "uint256",
          "name": "",
          "type": "uint256"
        }
      ],
      "stateMutability": "view",
      "type": "function"
    },
    {
      "inputs": [
        {
          "internalType": "uint256",
          "name": "tokenId",
          "type": "uint256"
        }
      ],
      "name": "tokenURI",
      "outputs": [
        {
          "internalType": "string",
          "name": "",
          "type": "string"
        }
      ],
      "stateMutability": "view",
      "type": "function"
    },
    {
      "inputs": [],
      "name": "totalSupply",
      "outputs": [
        {
          "internalType": "uint256",
          "name": "",
          "type": "uint256"
        }
      ],
      "stateMutability": "view",
      "type": "function"
    },
    {
      "inputs": [
        {
          "internalType": "address",
          "name": "from",
          "type": "address"
        },
        {
          "internalType": "address",
          "name": "to",
          "type": "address"
        },
        {
          "internalType": "uint256",
          "name": "tokenId",
          "type": "uint256"
        }
      ],
      "name": "transferFrom",
      "outputs": [],
      "stateMutability": "nonpayable",
      "type": "function"
    },
    {
      "inputs": [
        {
          "internalType": "address",
          "name": "newOwner",
          "type": "address"
        }
      ],
      "name": "transferOwnership",
      "outputs": [],
      "stateMutability": "nonpayable",
      "type": "function"
    }
  ],
  "transactionHash": "0x92a15f9c068f7db44b5dc118f2cf8663be14f9459c2eb97cbc23162eada868be",
  "args": [
    "0x0c6e47dc69f4f758dcc4d207a95b0e86a038c3241868c152beb76b3f84edfae9"
  ],
  "solcInputHash": "025b9c1ce9fe2c99d56de6c2c1fa9b85",
  "bytecode": "0x60c0604052600080553480156200001557600080fd5b50604051620021bd380380620021bd8339810160408190526200003891620001ca565b604051806040016040528060068152602001654875786c787960d01b815250604051806040016040528060068152602001654855584c585960d01b81525081600190805190602001906200008e92919062000124565b508051620000a490600290602084019062000124565b505050620000c1620000bb620000ce60201b60201c565b620000d2565b6080524260a05262000221565b3390565b600780546001600160a01b038381166001600160a01b0319831681179093556040519116919082907f8be0079c531659141344cd1fd0a4f28419497f9722a3daafe3b4186f6b6457e090600090a35050565b8280546200013290620001e4565b90600052602060002090601f016020900481019282620001565760008555620001a1565b82601f106200017157805160ff1916838001178555620001a1565b82800160010185558215620001a1579182015b82811115620001a157825182559160200191906001019062000184565b50620001af929150620001b3565b5090565b5b80821115620001af5760008155600101620001b4565b600060208284031215620001dd57600080fd5b5051919050565b600181811c90821680620001f957607f821691505b602082108114156200021b57634e487b7160e01b600052602260045260246000fd5b50919050565b60805160a051611f6f6200024e60003960006107d70152600081816102040152610a6c0152611f6f6000f3fe608060405234801561001057600080fd5b50600436106101585760003560e01c80636352211e116100c357806395d89b411161007c57806395d89b41146102f8578063a22cb46514610300578063b88d4fde14610313578063c87b56dd14610326578063e985e9c514610339578063f2fde38b1461037557600080fd5b80636352211e1461027a578063641ce1401461028d57806370a08231146102a0578063715018a6146102b35780638cc08025146102bb5780638da5cb5b146102e757600080fd5b80632eb4a7ab116101155780632eb4a7ab146101ff5780632f745c591461022657806335faa4161461023957806342842e0e146102415780634f6ccce71461025457806355f804b31461026757600080fd5b806301ffc9a71461015d57806306fdde0314610185578063081812fc1461019a578063095ea7b3146101c557806318160ddd146101da57806323b872dd146101ec575b600080fd5b61017061016b366004611965565b610388565b60405190151581526020015b60405180910390f35b61018d6103f5565b60405161017c91906119da565b6101ad6101a83660046119ed565b610487565b6040516001600160a01b03909116815260200161017c565b6101d86101d3366004611a22565b610517565b005b6000545b60405190815260200161017c565b6101d86101fa366004611a4c565b61062f565b6101de7f000000000000000000000000000000000000000000000000000000000000000081565b6101de610234366004611a22565b61063a565b6101d86107a8565b6101d861024f366004611a4c565b61086d565b6101de6102623660046119ed565b610888565b6101d8610275366004611a88565b6108ea565b6101ad6102883660046119ed565b610920565b6101d861029b366004611afa565b610932565b6101de6102ae366004611b84565b610b08565b6101d8610b99565b6101706102c9366004611b84565b6001600160a01b031660009081526009602052604090205460ff1690565b6007546001600160a01b03166101ad565b61018d610bcd565b6101d861030e366004611b9f565b610bdc565b6101d8610321366004611bf1565b610ca1565b61018d6103343660046119ed565b610cda565b610170610347366004611ccd565b6001600160a01b03918216600090815260066020908152604080832093909416825291909152205460ff1690565b6101d8610383366004611b84565b610da7565b60006001600160e01b031982166380ac58cd60e01b14806103b957506001600160e01b03198216635b5e139f60e01b145b806103d457506001600160e01b0319821663780e9d6360e01b145b806103ef57506301ffc9a760e01b6001600160e01b03198316145b92915050565b60606001805461040490611d00565b80601f016020809104026020016040519081016040528092919081815260200182805461043090611d00565b801561047d5780601f106104525761010080835404028352916020019161047d565b820191906000526020600020905b81548152906001019060200180831161046057829003601f168201915b5050505050905090565b6000610494826000541190565b6104fb5760405162461bcd60e51b815260206004820152602d60248201527f455243373231413a20617070726f76656420717565727920666f72206e6f6e6560448201526c3c34b9ba32b73a103a37b5b2b760991b60648201526084015b60405180910390fd5b506000908152600560205260409020546001600160a01b031690565b600061052282610920565b9050806001600160a01b0316836001600160a01b031614156105915760405162461bcd60e51b815260206004820152602260248201527f455243373231413a20617070726f76616c20746f2063757272656e74206f776e60448201526132b960f11b60648201526084016104f2565b336001600160a01b03821614806105ad57506105ad8133610347565b61061f5760405162461bcd60e51b815260206004820152603960248201527f455243373231413a20617070726f76652063616c6c6572206973206e6f74206f60448201527f776e6572206e6f7220617070726f76656420666f7220616c6c0000000000000060648201526084016104f2565b61062a838383610e42565b505050565b61062a838383610e9e565b600061064583610b08565b821061069e5760405162461bcd60e51b815260206004820152602260248201527f455243373231413a206f776e657220696e646578206f7574206f6620626f756e604482015261647360f01b60648201526084016104f2565b600080549080805b83811015610748576000818152600360209081526040918290208251808401909352546001600160a01b038116808452600160a01b90910467ffffffffffffffff1691830191909152156106f957805192505b876001600160a01b0316836001600160a01b031614156107355786841415610727575093506103ef92505050565b8361073181611d51565b9450505b508061074081611d51565b9150506106a6565b5060405162461bcd60e51b815260206004820152602e60248201527f455243373231413a20756e61626c6520746f2067657420746f6b656e206f662060448201526d0deeedccae440c4f240d2dcc8caf60931b60648201526084016104f2565b6007546001600160a01b031633146107d25760405162461bcd60e51b81526004016104f290611d6c565b6107ff7f000000000000000000000000000000000000000000000000000000000000000062278d00611da1565b421161084d5760405162461bcd60e51b815260206004820152601d60248201527f41697264726f7020706572696f6420686173206e6f7420656e6465642e00000060448201526064016104f2565b61086b3361085a60005490565b61086690612710611db9565b6111e5565b565b61062a83838360405180602001604052806000815250610ca1565b6000805482106108e65760405162461bcd60e51b815260206004820152602360248201527f455243373231413a20676c6f62616c20696e646578206f7574206f6620626f756044820152626e647360e81b60648201526084016104f2565b5090565b6007546001600160a01b031633146109145760405162461bcd60e51b81526004016104f290611d6c565b61062a600883836118bf565b600061092b82611203565b5192915050565b6001600160a01b03841660009081526009602052604090205460ff161561099b5760405162461bcd60e51b815260206004820152601860248201527f41697264726f7020616c726561647920636c61696d65642e000000000000000060448201526064016104f2565b612710836109a860005490565b6109b29190611da1565b11156109f65760405162461bcd60e51b815260206004820152601360248201527226b4b73a103634b6b4ba103932b0b1b432b21760691b60448201526064016104f2565b6040516bffffffffffffffffffffffff19606086901b16602082015260348101849052600090605401604051602081830303815290604052805190602001209050610a978383808060200260200160405190810160405280939291908181526020018383602002808284376000920191909152507f000000000000000000000000000000000000000000000000000000000000000092508591506112e39050565b610ad45760405162461bcd60e51b815260206004820152600e60248201526d24b73b30b634b210383937b7b31760911b60448201526064016104f2565b6001600160a01b0385166000908152600960205260409020805460ff19166001179055610b0185856111e5565b5050505050565b60006001600160a01b038216610b745760405162461bcd60e51b815260206004820152602b60248201527f455243373231413a2062616c616e636520717565727920666f7220746865207a60448201526a65726f206164647265737360a81b60648201526084016104f2565b506001600160a01b03166000908152600460205260409020546001600160801b031690565b6007546001600160a01b03163314610bc35760405162461bcd60e51b81526004016104f290611d6c565b61086b60006112f9565b60606002805461040490611d00565b6001600160a01b038216331415610c355760405162461bcd60e51b815260206004820152601a60248201527f455243373231413a20617070726f766520746f2063616c6c657200000000000060448201526064016104f2565b3360008181526006602090815260408083206001600160a01b03871680855290835292819020805460ff191686151590811790915590519081529192917f17307eab39ab6107e8899845ad3d59bd9653f200f220920489ca2b5937696c31910160405180910390a35050565b610cac848484610e9e565b610cb88484848461134b565b610cd45760405162461bcd60e51b81526004016104f290611dd0565b50505050565b6060610ce7826000541190565b610d4b5760405162461bcd60e51b815260206004820152602f60248201527f4552433732314d657461646174613a2055524920717565727920666f72206e6f60448201526e3732bc34b9ba32b73a103a37b5b2b760891b60648201526084016104f2565b6000610d5561144a565b90506000815111610d755760405180602001604052806000815250610da0565b80610d7f84611459565b604051602001610d90929190611e23565b6040516020818303038152906040525b9392505050565b6007546001600160a01b03163314610dd15760405162461bcd60e51b81526004016104f290611d6c565b6001600160a01b038116610e365760405162461bcd60e51b815260206004820152602660248201527f4f776e61626c653a206e6577206f776e657220697320746865207a65726f206160448201526564647265737360d01b60648201526084016104f2565b610e3f816112f9565b50565b60008281526005602052604080822080546001600160a01b0319166001600160a01b0387811691821790925591518593918516917f8c5be1e5ebec7d5bd14f71427d1e84f3dd0314c0f7b2291e5b200ac8c7c3b92591a4505050565b6000610ea982611203565b80519091506000906001600160a01b0316336001600160a01b03161480610ee0575033610ed584610487565b6001600160a01b0316145b80610ef257508151610ef29033610347565b905080610f5c5760405162461bcd60e51b815260206004820152603260248201527f455243373231413a207472616e736665722063616c6c6572206973206e6f74206044820152711bdddb995c881b9bdc88185c1c1c9bdd995960721b60648201526084016104f2565b846001600160a01b031682600001516001600160a01b031614610fd05760405162461bcd60e51b815260206004820152602660248201527f455243373231413a207472616e736665722066726f6d20696e636f72726563746044820152651037bbb732b960d11b60648201526084016104f2565b6001600160a01b0384166110345760405162461bcd60e51b815260206004820152602560248201527f455243373231413a207472616e7366657220746f20746865207a65726f206164604482015264647265737360d81b60648201526084016104f2565b6110446000848460000151610e42565b6001600160a01b03858116600090815260046020908152604080832080546fffffffffffffffffffffffffffffffff198082166001600160801b03928316600019018316179092558986168086528386208054938416938316600190810190931693909317909255825180840184529182524267ffffffffffffffff9081168386019081528a8752600390955292852091518254945196166001600160e01b031990941693909317600160a01b95909216949094021790925590611109908590611da1565b6000818152600360205260409020549091506001600160a01b031661119b57611133816000541190565b1561119b5760408051808201825284516001600160a01b03908116825260208087015167ffffffffffffffff9081168285019081526000878152600390935294909120925183549451909116600160a01b026001600160e01b03199094169116179190911790555b83856001600160a01b0316876001600160a01b03167fddf252ad1be2c89b69c2b068fc378daa952ba7f163c4a11628f55a4df523b3ef60405160405180910390a45b505050505050565b6111ff828260405180602001604052806000815250611557565b5050565b6040805180820190915260008082526020820152611222826000541190565b6112815760405162461bcd60e51b815260206004820152602a60248201527f455243373231413a206f776e657220717565727920666f72206e6f6e657869736044820152693a32b73a103a37b5b2b760b11b60648201526084016104f2565b815b6000818152600360209081526040918290208251808401909352546001600160a01b038116808452600160a01b90910467ffffffffffffffff1691830191909152156112d0579392505050565b50806112db81611e52565b915050611283565b6000826112f08584611813565b14949350505050565b600780546001600160a01b038381166001600160a01b0319831681179093556040519116919082907f8be0079c531659141344cd1fd0a4f28419497f9722a3daafe3b4186f6b6457e090600090a35050565b60006001600160a01b0384163b1561143e57604051630a85bd0160e11b81526001600160a01b0385169063150b7a029061138f903390899088908890600401611e69565b6020604051808303816000875af19250505080156113ca575060408051601f3d908101601f191682019092526113c791810190611ea6565b60015b611424573d8080156113f8576040519150601f19603f3d011682016040523d82523d6000602084013e6113fd565b606091505b50805161141c5760405162461bcd60e51b81526004016104f290611dd0565b805181602001fd5b6001600160e01b031916630a85bd0160e11b149050611442565b5060015b949350505050565b60606008805461040490611d00565b60608161147d5750506040805180820190915260018152600360fc1b602082015290565b8160005b81156114a7578061149181611d51565b91506114a09050600a83611ed9565b9150611481565b60008167ffffffffffffffff8111156114c2576114c2611bdb565b6040519080825280601f01601f1916602001820160405280156114ec576020820181803683370190505b5090505b841561144257611501600183611db9565b915061150e600a86611eed565b611519906030611da1565b60f81b81838151811061152e5761152e611f01565b60200101906001600160f81b031916908160001a905350611550600a86611ed9565b94506114f0565b6000546001600160a01b0384166115ba5760405162461bcd60e51b815260206004820152602160248201527f455243373231413a206d696e7420746f20746865207a65726f206164647265736044820152607360f81b60648201526084016104f2565b6115c5816000541190565b156116125760405162461bcd60e51b815260206004820152601d60248201527f455243373231413a20746f6b656e20616c7265616479206d696e74656400000060448201526064016104f2565b6000831161166e5760405162461bcd60e51b815260206004820152602360248201527f455243373231413a207175616e74697479206d7573742062652067726561746560448201526207220360ec1b60648201526084016104f2565b6001600160a01b0384166000908152600460209081526040918290208251808401845290546001600160801b038082168352600160801b90910416918101919091528151808301909252805190919081906116ca908790611f17565b6001600160801b031681526020018583602001516116e89190611f17565b6001600160801b039081169091526001600160a01b0380881660008181526004602090815260408083208751978301518716600160801b0297909616969096179094558451808601865291825267ffffffffffffffff4281168386019081528883526003909552948120915182549451909516600160a01b026001600160e01b031990941694909216939093179190911790915582905b858110156118085760405182906001600160a01b038916906000907fddf252ad1be2c89b69c2b068fc378daa952ba7f163c4a11628f55a4df523b3ef908290a46117cc600088848861134b565b6117e85760405162461bcd60e51b81526004016104f290611dd0565b816117f281611d51565b925050808061180090611d51565b91505061177f565b5060008190556111dd565b600081815b84518110156118b757600085828151811061183557611835611f01565b602002602001015190508083116118775760408051602081018590529081018290526060016040516020818303038152906040528051906020012092506118a4565b60408051602081018390529081018490526060016040516020818303038152906040528051906020012092505b50806118af81611d51565b915050611818565b509392505050565b8280546118cb90611d00565b90600052602060002090601f0160209004810192826118ed5760008555611933565b82601f106119065782800160ff19823516178555611933565b82800160010185558215611933579182015b82811115611933578235825591602001919060010190611918565b506108e69291505b808211156108e6576000815560010161193b565b6001600160e01b031981168114610e3f57600080fd5b60006020828403121561197757600080fd5b8135610da08161194f565b60005b8381101561199d578181015183820152602001611985565b83811115610cd45750506000910152565b600081518084526119c6816020860160208601611982565b601f01601f19169290920160200192915050565b602081526000610da060208301846119ae565b6000602082840312156119ff57600080fd5b5035919050565b80356001600160a01b0381168114611a1d57600080fd5b919050565b60008060408385031215611a3557600080fd5b611a3e83611a06565b946020939093013593505050565b600080600060608486031215611a6157600080fd5b611a6a84611a06565b9250611a7860208501611a06565b9150604084013590509250925092565b60008060208385031215611a9b57600080fd5b823567ffffffffffffffff80821115611ab357600080fd5b818501915085601f830112611ac757600080fd5b813581811115611ad657600080fd5b866020828501011115611ae857600080fd5b60209290920196919550909350505050565b60008060008060608587031215611b1057600080fd5b611b1985611a06565b935060208501359250604085013567ffffffffffffffff80821115611b3d57600080fd5b818701915087601f830112611b5157600080fd5b813581811115611b6057600080fd5b8860208260051b8501011115611b7557600080fd5b95989497505060200194505050565b600060208284031215611b9657600080fd5b610da082611a06565b60008060408385031215611bb257600080fd5b611bbb83611a06565b915060208301358015158114611bd057600080fd5b809150509250929050565b634e487b7160e01b600052604160045260246000fd5b60008060008060808587031215611c0757600080fd5b611c1085611a06565b9350611c1e60208601611a06565b925060408501359150606085013567ffffffffffffffff80821115611c4257600080fd5b818701915087601f830112611c5657600080fd5b813581811115611c6857611c68611bdb565b604051601f8201601f19908116603f01168101908382118183101715611c9057611c90611bdb565b816040528281528a6020848701011115611ca957600080fd5b82602086016020830137600060208483010152809550505050505092959194509250565b60008060408385031215611ce057600080fd5b611ce983611a06565b9150611cf760208401611a06565b90509250929050565b600181811c90821680611d1457607f821691505b60208210811415611d3557634e487b7160e01b600052602260045260246000fd5b50919050565b634e487b7160e01b600052601160045260246000fd5b6000600019821415611d6557611d65611d3b565b5060010190565b6020808252818101527f4f776e61626c653a2063616c6c6572206973206e6f7420746865206f776e6572604082015260600190565b60008219821115611db457611db4611d3b565b500190565b600082821015611dcb57611dcb611d3b565b500390565b60208082526033908201527f455243373231413a207472616e7366657220746f206e6f6e204552433732315260408201527232b1b2b4bb32b91034b6b83632b6b2b73a32b960691b606082015260800190565b60008351611e35818460208801611982565b835190830190611e49818360208801611982565b01949350505050565b600081611e6157611e61611d3b565b506000190190565b6001600160a01b0385811682528416602082015260408101839052608060608201819052600090611e9c908301846119ae565b9695505050505050565b600060208284031215611eb857600080fd5b8151610da08161194f565b634e487b7160e01b600052601260045260246000fd5b600082611ee857611ee8611ec3565b500490565b600082611efc57611efc611ec3565b500690565b634e487b7160e01b600052603260045260246000fd5b60006001600160801b03808316818516808303821115611e4957611e49611d3b56fea264697066735822122000b0b5e1a2d49ffe42f3f2aa245cd626e15fe49dbe022bb0179814320da1091e64736f6c634300080b0033",
  "devdoc": {
    "kind": "dev",
    "methods": {
      "approve(address,uint256)": {
        "details": "See {IERC721-approve}."
      },
      "balanceOf(address)": {
        "details": "See {IERC721-balanceOf}."
      },
      "getApproved(uint256)": {
        "details": "See {IERC721-getApproved}."
      },
      "isApprovedForAll(address,address)": {
        "details": "See {IERC721-isApprovedForAll}."
      },
      "name()": {
        "details": "See {IERC721Metadata-name}."
      },
      "owner()": {
        "details": "Returns the address of the current owner."
      },
      "ownerOf(uint256)": {
        "details": "See {IERC721-ownerOf}."
      },
      "renounceOwnership()": {
        "details": "Leaves the contract without owner. It will not be possible to call `onlyOwner` functions anymore. Can only be called by the current owner. NOTE: Renouncing ownership will leave the contract without an owner, thereby removing any functionality that is only available to the owner."
      },
      "safeTransferFrom(address,address,uint256)": {
        "details": "See {IERC721-safeTransferFrom}."
      },
      "safeTransferFrom(address,address,uint256,bytes)": {
        "details": "See {IERC721-safeTransferFrom}."
      },
      "setApprovalForAll(address,bool)": {
        "details": "See {IERC721-setApprovalForAll}."
      },
      "supportsInterface(bytes4)": {
        "details": "See {IERC165-supportsInterface}."
      },
      "symbol()": {
        "details": "See {IERC721Metadata-symbol}."
      },
      "tokenByIndex(uint256)": {
        "details": "See {IERC721Enumerable-tokenByIndex}."
      },
      "tokenOfOwnerByIndex(address,uint256)": {
        "details": "See {IERC721Enumerable-tokenOfOwnerByIndex}. This read function is O(totalSupply). If calling from a separate contract, be sure to test gas first. It may also degrade with extremely large collection sizes (e.g >> 10000), test for your use case."
      },
      "tokenURI(uint256)": {
        "details": "See {IERC721Metadata-tokenURI}."
      },
      "totalSupply()": {
        "details": "See {IERC721Enumerable-totalSupply}."
      },
      "transferFrom(address,address,uint256)": {
        "details": "See {IERC721-transferFrom}."
      },
      "transferOwnership(address)": {
        "details": "Transfers ownership of the contract to a new account (`newOwner`). Can only be called by the current owner."
      }
    },
    "version": 1
  },
  "userdoc": {
    "kind": "user",
    "methods": {},
    "version": 1
  },
  "storageLayout": {
    "storage": [
      {
        "astId": 1139,
        "contract": "contracts/HuxlxyNFT.sol:HuxlxyNFT",
        "label": "currentIndex",
        "offset": 0,
        "slot": "0",
        "type": "t_uint256"
      },
      {
        "astId": 1141,
        "contract": "contracts/HuxlxyNFT.sol:HuxlxyNFT",
        "label": "_name",
        "offset": 0,
        "slot": "1",
        "type": "t_string_storage"
      },
      {
        "astId": 1143,
        "contract": "contracts/HuxlxyNFT.sol:HuxlxyNFT",
        "label": "_symbol",
        "offset": 0,
        "slot": "2",
        "type": "t_string_storage"
      },
      {
        "astId": 1148,
        "contract": "contracts/HuxlxyNFT.sol:HuxlxyNFT",
        "label": "_ownerships",
        "offset": 0,
        "slot": "3",
        "type": "t_mapping(t_uint256,t_struct(TokenOwnership)1131_storage)"
      },
      {
        "astId": 1153,
        "contract": "contracts/HuxlxyNFT.sol:HuxlxyNFT",
        "label": "_addressData",
        "offset": 0,
        "slot": "4",
        "type": "t_mapping(t_address,t_struct(AddressData)1136_storage)"
      },
      {
        "astId": 1157,
        "contract": "contracts/HuxlxyNFT.sol:HuxlxyNFT",
        "label": "_tokenApprovals",
        "offset": 0,
        "slot": "5",
        "type": "t_mapping(t_uint256,t_address)"
      },
      {
        "astId": 1163,
        "contract": "contracts/HuxlxyNFT.sol:HuxlxyNFT",
        "label": "_operatorApprovals",
        "offset": 0,
        "slot": "6",
        "type": "t_mapping(t_address,t_mapping(t_address,t_bool))"
      },
      {
        "astId": 7,
        "contract": "contracts/HuxlxyNFT.sol:HuxlxyNFT",
        "label": "_owner",
        "offset": 0,
        "slot": "7",
        "type": "t_address"
      },
      {
        "astId": 953,
        "contract": "contracts/HuxlxyNFT.sol:HuxlxyNFT",
        "label": "baseURI",
        "offset": 0,
        "slot": "8",
        "type": "t_string_storage"
      },
      {
        "astId": 961,
        "contract": "contracts/HuxlxyNFT.sol:HuxlxyNFT",
        "label": "claimed",
        "offset": 0,
        "slot": "9",
        "type": "t_mapping(t_address,t_bool)"
      }
    ],
    "types": {
      "t_address": {
        "encoding": "inplace",
        "label": "address",
        "numberOfBytes": "20"
      },
      "t_bool": {
        "encoding": "inplace",
        "label": "bool",
        "numberOfBytes": "1"
      },
      "t_mapping(t_address,t_bool)": {
        "encoding": "mapping",
        "key": "t_address",
        "label": "mapping(address => bool)",
        "numberOfBytes": "32",
        "value": "t_bool"
      },
      "t_mapping(t_address,t_mapping(t_address,t_bool))": {
        "encoding": "mapping",
        "key": "t_address",
        "label": "mapping(address => mapping(address => bool))",
        "numberOfBytes": "32",
        "value": "t_mapping(t_address,t_bool)"
      },
      "t_mapping(t_address,t_struct(AddressData)1136_storage)": {
        "encoding": "mapping",
        "key": "t_address",
        "label": "mapping(address => struct ERC721A.AddressData)",
        "numberOfBytes": "32",
        "value": "t_struct(AddressData)1136_storage"
      },
      "t_mapping(t_uint256,t_address)": {
        "encoding": "mapping",
        "key": "t_uint256",
        "label": "mapping(uint256 => address)",
        "numberOfBytes": "32",
        "value": "t_address"
      },
      "t_mapping(t_uint256,t_struct(TokenOwnership)1131_storage)": {
        "encoding": "mapping",
        "key": "t_uint256",
        "label": "mapping(uint256 => struct ERC721A.TokenOwnership)",
        "numberOfBytes": "32",
        "value": "t_struct(TokenOwnership)1131_storage"
      },
      "t_string_storage": {
        "encoding": "bytes",
        "label": "string",
        "numberOfBytes": "32"
      },
      "t_struct(AddressData)1136_storage": {
        "encoding": "inplace",
        "label": "struct ERC721A.AddressData",
        "members": [
          {
            "astId": 1133,
            "contract": "contracts/HuxlxyNFT.sol:HuxlxyNFT",
            "label": "balance",
            "offset": 0,
            "slot": "0",
            "type": "t_uint128"
          },
          {
            "astId": 1135,
            "contract": "contracts/HuxlxyNFT.sol:HuxlxyNFT",
            "label": "numberMinted",
            "offset": 16,
            "slot": "0",
            "type": "t_uint128"
          }
        ],
        "numberOfBytes": "32"
      },
      "t_struct(TokenOwnership)1131_storage": {
        "encoding": "inplace",
        "label": "struct ERC721A.TokenOwnership",
        "members": [
          {
            "astId": 1128,
            "contract": "contracts/HuxlxyNFT.sol:HuxlxyNFT",
            "label": "addr",
            "offset": 0,
            "slot": "0",
            "type": "t_address"
          },
          {
            "astId": 1130,
            "contract": "contracts/HuxlxyNFT.sol:HuxlxyNFT",
            "label": "startTimestamp",
            "offset": 20,
            "slot": "0",
            "type": "t_uint64"
          }
        ],
        "numberOfBytes": "32"
      },
      "t_uint128": {
        "encoding": "inplace",
        "label": "uint128",
        "numberOfBytes": "16"
      },
      "t_uint256": {
        "encoding": "inplace",
        "label": "uint256",
        "numberOfBytes": "32"
      },
      "t_uint64": {
        "encoding": "inplace",
        "label": "uint64",
        "numberOfBytes": "8"
      }
    }
  }
}